:100000000C9435000C945D000C945D000C945D0024
:100010000C945D000C945D000C945D000C945D00EC
:100020000C945D000C945D000C945D000C945D00DC
:100030000C945D000C945D000C945D000C945D00CC
:100040000C9460030C945D000C94F8000C943F0138
:100050000C945D000C945D000C945D000C945D00AC
:100060000C945D000C945D007C0211241FBECFEF48
:10007000D8E0DEBFCDBF11E0A0E0B1E0E6E5FBE0F7
:1000800002C005900D92AE35B107D9F712E0AEE58A
:10009000B1E001C01D92AF30B107E1F710E0CAE650
:1000A000D0E004C02297FE010E94A505C836D10702
:1000B000C9F70E944B030C94A9050C94000080E63C
:1000C00091E060E071E00E943803E0915E01F09100
:1000D0005F01A081B18116962D913C911797CF01B8
:1000E000F901099568EE73E080E090E00E94E30377
:1000F0000895FF920F931F9300E611E0C80140E8B6
:1001000055E260E070E00E946F01C80165E071E0B7
:100110000E94380382E090E00E945D03F92E082FD0
:10012000192FC8010E94EA0000935E01F0925F015E
:10013000D801ED91FC910480F581E02D802F9F2D59
:1001400009951F910F91FF90089508950895FC015E
:1001500089E391E0918380830895FC0189E391E034
:10016000918380830895FC0189E391E091838083EA
:100170000895FC0189E391E091838083CF010E947F
:100180005A03089580E691E06BE071E00E94380325
:10019000089580E691E06AE171E00E9438030895D5
:1001A000FC0185E491E091838083CF010E94AD0042
:1001B00008950F931F938C0185E491E0F8019183DA
:1001C0008083C8010E94AD00C8010E945A031F919C
:1001D0000F9108950F931F938C010E94A70085E44F
:1001E00091E0F801918380831F910F910895089504
:1001F0001F920F920FB60F9211242F933F934F939C
:100200008F939F93EF93FF938091C00082FD19C05D
:100210004091C60080917E01282F30E02F5F3F4F34
:100220002F73307080917F0190E02817390759F0C3
:10023000E0917E01F0E0E05AFE4F42A320937E0160
:1002400002C08091C600FF91EF919F918F914F91D5
:100250003F912F910F900FBE0F901F901895809196
:100260007E0120917F0190E0805C9F4F821B91096D
:100270008F739070892B11F00E94F70008951F92E0
:100280000F920FB60F9211242F938F939F93EF939A
:10029000FF939091800180918101981731F48091B2
:1002A000C1008F7D8093C10010C0E0918101F0E01A
:1002B000EE53FE4F20818091810190E001968F7373
:1002C0009070809381012093C600FF91EF919F91E0
:1002D0008F912F910F900FBE0F901F901895AF9296
:1002E000BF92DF92EF92FF920F931F93CF93DF9312
:1002F000EC017A018B01DD24403081EE580780E06B
:10030000680780E0780711F0DD24D39491E0A92EEE
:10031000B12CE889F989DD2069F0C5010C8C02C097
:10032000880F991F0A94E2F7808360E079E08DE3FB
:1003300090E005C0108260E874E88EE190E0A801CA
:1003400097010E9481052150304040405040569511
:1003500047953795279580E12030380720F0DD203C
:1003600011F0DD24D6CFEC85FD853083EE85FF8549
:1003700020831D8EEA89FB89408121E030E0C9019C
:10038000088C02C0880F991F0A94E2F7482B40831B
:10039000EA89FB894081C901098C02C0880F991F35
:1003A0000A94E2F7482B4083EA89FB894081C9011E
:1003B0000A8C02C0880F991F0A94E2F7482B4083E9
:1003C000EA89FB8980810B8C02C0220F331F0A94BB
:1003D000E2F7209528232083DF91CF911F910F9181
:1003E000FF90EF90DF90BF90AF900895FC01268DB5
:1003F000878D30E0205C3F4F281B31092F73307010
:10040000C9010895FC01968D878D981719F42FEF77
:100410003FEF06C0878DE80FF11D82A1282F30E045
:10042000C9010895DC015E969C915E975F968C9160
:100430005F97981719F42FEF3FEF10C05F968C91DC
:100440005F97FD01E80FF11D92A15F968C915F9778
:100450008F5F8F735F968C93292F30E0C9010895C9
:10046000DC015D968C915D97882339F05096ED9173
:10047000FC915197808186FFF9CF5D961C9208957B
:10048000DC0190968C919097282F30E02F5F3F4FA2
:100490002F73307091968C91919790E028173907BF
:1004A000C9F390968C919097FD01E80FF11DEE59DC
:1004B000FF4F608390962C9390975296ED91FC910C
:1004C0005397208181E090E05B960C905B9702C08F
:1004D000880F991F0A94E2F7282B208381E05D960C
:1004E0008C935D975096ED91FC915197808180643B
:1004F000808381E090E00895109263011092620180
:1005000088EE93E0A0E0B0E08093640190936501F1
:10051000A0936601B093670181E591E0909361013A
:10052000809360011092810180918101809380010C
:1005300010927F0180917F0180937E0185EC90E095
:1005400090936D0180936C0184EC90E090936F0127
:1005500080936E0180EC90E0909371018093700124
:1005600081EC90E0909373018093720182EC90E0B3
:10057000909375018093740186EC90E090937701DD
:100580008093760184E08093780183E08093790101
:1005900087E080937A0185E080937B0181E08093FE
:1005A0007C010895CF92DF92EF92FF920F931F93F9
:1005B000CF93DF937C016B018A01C0E0D0E00FC0D4
:1005C000D6016D916D01D701ED91FC910190F08103
:1005D000E02DC7010995C80FD91F01501040011522
:1005E000110571F7CE01DF91CF911F910F91FF900F
:1005F000EF90DF90CF900895EF92FF920F931F93AB
:100600008C01DC01ED91FC910190F081E02D6DE019
:1006100009957C01D801ED91FC910190F081E02DCC
:10062000C8016AE009959C012E0D3F1DC9011F916B
:100630000F91FF90EF900895CF93DF93EC01611538
:10064000710519F420E030E00FC0DB010D900020AF
:10065000E9F71197A61BB70BE881F9810280F381B6
:10066000E02DAD0109959C01C901DF91CF9108955D
:10067000EF92FF920F931F937C010E941C038C0149
:10068000C7010E94FC02080F191FC8011F910F919A
:10069000FF90EF900895CF93DF930E94A8030E94EC
:1006A0007900CFE2D1E00E945F002097E1F30E9441
:1006B0002F01F9CF0E94E80408950E944B04089589
:1006C0001F920F920FB60F9211242F933F938F9387
:1006D0009F93AF93BF938091060290910702A091E0
:1006E0000802B091090230910A020196A11DB11DC4
:1006F000232F2D5F2D3720F02D570196A11DB11D01
:1007000020930A028093060290930702A0930802A6
:10071000B09309028091020290910302A091040219
:10072000B09105020196A11DB11D80930202909324
:100730000302A0930402B0930502BF91AF919F9171
:100740008F913F912F910F900FBE0F901F90189592
:10075000789484B5826084BD84B5816084BD85B59C
:10076000826085BD85B5816085BDEEE6F0E0808163
:1007700081608083E1E8F0E0108280818260808384
:10078000808181608083E0E8F0E080818160808307
:10079000E1EBF0E0808184608083E0EBF0E0808139
:1007A00081608083EAE7F0E08081846080838081DB
:1007B0008260808380818160808380818068808383
:1007C0001092C1000895EF92FF920F931F93CF9361
:1007D000DF937B018C013FB7F894809102029091E6
:1007E0000302A0910402B091050226B5A89B05C0A2
:1007F0002F3F19F00196A11DB11D3FBFBA2FA92FA0
:10080000982F8827820F911DA11DB11D52E0880FDE
:10081000991FAA1FBB1F5A95D1F7EC0130C00E9447
:1008200080053FB7F8948091020290910302A09155
:100830000402B091050226B5A89B05C02F3F19F010
:100840000196A11DB11D3FBFBA2FA92F982F882750
:10085000820F911DA11DB11D32E0880F991FAA1FA3
:10086000BB1F3A95D1F78C1B9D0B885E9340B8F265
:100870000894E108F10801091109C851DC4FE1149D
:10088000F1040105110559F6DF91CF911F910F91E8
:10089000FF90EF9008950F931F93CF93DF93BC01C8
:1008A0008230910510F462E070E0E0910D02F09169
:1008B0000E02A0E0B0E040E050E024C080819181D1
:1008C00086179707D0F08617970771F48281938176
:1008D000109729F013969C938E9312972CC09093A7
:1008E0000E0280930D0227C04115510519F084179F
:1008F000950718F4EF018D01AC01DF01828193812E
:100900009C01F9013097D1F641155105F9F0CA0162
:10091000861B970B8430910580F48A819B81011599
:10092000110521F0F8019383828304C090930E0295
:1009300080930D02FE01329645C0FE01E80FF91FBB
:10094000619371930297998388833CC080910B02D5
:1009500090910C02892B41F48091310190913201E8
:1009600090930C0280930B0240913301509134011B
:100970004115510541F44DB75EB780912F0190911B
:100980003001481B590B20910B0230910C022417A7
:100990003507B0F4CA01821B930B8617970780F0C6
:1009A000AB014E5F5F4F8417950750F0420F531F06
:1009B00050930C0240930B02F9016193719302C0B2
:1009C000E0E0F0E0CF01DF91CF911F910F9108950A
:1009D000CF93DF939C01009709F48FC0EC0122971D
:1009E0001B821A8260910D0270910E0261157105D1
:1009F00081F488819981820F931F20910B0230919D
:100A00000C022817390739F5D0930C02C0930B025A
:100A100074C0DB0140E050E0AC17BD0708F1BB83B8
:100A2000AA83FE0121913191E20FF31FAE17BF0798
:100A300079F48D919C911197280F391F2E5F3F4FAC
:100A40003983288312968D919C9113979B838A8377
:100A50004115510571F4D0930E02C0930D024DC0A3
:100A600012968D919C911397AD01009711F0DC01C6
:100A7000D3CFDA011396DC93CE931297FA0121912A
:100A80003191E20FF31FCE17DF0769F48881998156
:100A9000280F391F2E5F3F4FFA01318320838A814F
:100AA0009B8193838283E0E0F0E0DB0112968D91DD
:100AB0009C911397009719F0BC01FD01F6CFAB0193
:100AC0004E5F5F4FDB018D919C91840F951F2091AC
:100AD0000B0230910C022817390779F4309729F46A
:100AE00010920E0210920D0202C013821282425026
:100AF000504050930C0240930B02DF91CF91089528
:100B00000895A1E21A2EAA1BBB1BFD010DC0AA1F4E
:100B1000BB1FEE1FFF1FA217B307E407F50720F066
:100B2000A21BB30BE40BF50B661F771F881F991FE1
:100B30001A9469F760957095809590959B01AC012A
:100B4000BD01CF010895EE0FFF1F0590F491E02D38
:060B50000994F894FFCFA8
:100B560073686F7700626567696E0063726F73739F
:100B6600666164652073686F770063726F7373667E
:100B760061646520696E697469616C697A65008073
:100B8600000F02000000000000B300B900A500A697
:100B96000000000000D000D900C900C2000000001B
:0E0BA600004002D202F60112020202300200EA
:00000001FF
