:100000000C9460000C9488000C9488000C94880078
:100010000C9488000C9488000C9488000C94880040
:100020000C9488000C9488000C9488000C94880030
:100030000C9488000C9488000C9488000C94880020
:100040000C94060E0C9488000C940A0C0C943C0C36
:100050000C9488000C9488000C9488000C94880000
:100060000C945D050C94880000000008000201005B
:100070000003040700000000000000000102040863
:100080001020408001020408102001020408102002
:10009000040404040404040402020202020203032E
:1000A0000303030300000000250028002B000000CC
:1000B0000000240027002A0072035D07350A6C0C3B
:1000C00011241FBECFEFD8E0DEBFCDBF12E0A0E00D
:1000D000B1E0EAEEF2E202C005900D92AA39B10752
:1000E000D9F724E0AAE9B2E001C01D92A433B20717
:1000F000E1F710E0C0ECD0E004C02297FE010E94BE
:100100004810C83BD107C9F70E94F30D0C94731136
:100110000C940000CF93DF9326E040E855E260E0C6
:1001200070E08AE893E00E94A80B64E171E08AE83D
:1001300093E00E940A0D61E082E00E946A0F82E073
:1001400090E00E94020EEC010E94B001D0939D024B
:10015000C0939C0284E090E00E94020EEC0164E1F6
:1001600070E00E94B203D0939B02C0939A026AE1AE
:1001700071E08AE893E00E940A0D80919C029091C0
:100180009D02DC01ED91FC910480F581E02D099543
:1001900080919A0290919B02DC01ED91FC91068086
:1001A000F781E02DDF91CF91099461E471E08AE855
:1001B00093E00E940A0D80919C0290919D02DC01C7
:1001C000ED91FC910084F185E02D099560E082E0DD
:1001D0000C94A30F61E082E00C94A30FCF92DF9206
:1001E000EF92FF92CF93DF9380919A0290919B02BE
:1001F000DC01ED91FC910480F581E02D09958823C7
:10020000A1F065EE71E08AE893E00E940A0D0E9479
:10021000EA0080919C0290919D02DC01ED91FC919D
:100220000680F781E02D099547C00E94D500809196
:100230009A0290919B02DC01ED91FC910084F18582
:10024000E02D0995EC014AE050E0BC018AE893E01A
:100250000E94BF0D68E571E08AE893E00E940A0DF4
:10026000CB30D10514F0C1E0D0E0DE0120E83EEE55
:1002700046E350E00E942A106B017C0160E771E0C8
:100280008AE893E00E94ED0C2AE030E0B701A60175
:100290008AE893E00E94750D6EE771E08AE893E0CA
:1002A0000E940A0DC701B6010E947F0E6BE871E043
:1002B0008AE893E00E940A0D60E67AEE80E090E022
:1002C000DF91CF91FF90EF90DF90CF900C947F0E55
:1002D00008950895089528EA31E0FC0131832083D0
:1002E000089528EA31E0FC01318320830C94040E48
:1002F00028EA31E0FC0131832083089562EB71E04C
:100300008AE893E00E940A0D61E089E00E946A0F8A
:1003100061E08AE00E946A0F61E08BE00C946A0F52
:1003200060E070E089E00E94E20E60E070E08AE048
:100330000E94E20E60E070E08BE00C94E20E2EEE84
:1003400031E0FC01318320830C946B01CF93DF9368
:10035000EC010E949F01CE01DF91CF910C94040E1D
:10036000CF93DF93EC010E9478018EEE91E09983A8
:100370008883DF91CF910895CF93DF93EB01FA014A
:10038000C901209751F00E94DA0F892B31F41C1615
:100390001D0614F4319601C03197F7FF02C0E0E06A
:1003A000F0E0CF01EF3FF10519F014F08FEF90E08E
:1003B000DF91CF9108958F929F92AF92BF92CF928B
:1003C000DF92EF92FF920F931F93CF93DF935C0125
:1003D000FB0122813381CFEFC29FC001C39F900DEB
:1003E000112424E630E0B9010E94DA0F7B01448138
:1003F0005581C49FC001C59F900D1124B9010E9471
:10040000DA0F6B0140815181C49FC001C59F900DDF
:100410001124B9010E94DA0F8B018091A202909100
:10042000A302081B190B31F08CEF93E0B8010E9476
:10043000DA0F8B018091A0029091A102E81AF90ACB
:1004400031F08CEF93E0B7010E94DA0F7B018091CD
:100450009E0290919F02C81AD90A31F08CEF93E066
:10046000B6010E94DA0F6B01C0E0D0E04091AC020F
:100470005091AD029E01B801C5010E94BC014C0122
:100480009093AD028093AC024091AA025091AB02CE
:100490009E01B701C5010E94BC019093AB028093FD
:1004A000AA024091A8025091A9029E01B601C5017D
:1004B0000E94BC019093A9028093A802B401769592
:1004C00067957695679589E00E94E20E6091AA0291
:1004D0007091AB0275956795759567958AE00E9456
:1004E000E20E6091A8027091A902759567957595C5
:1004F00067958BE00E94E20E6091080170910901FE
:10050000882777FD8095982F0E947F0E8091A40206
:100510009091A502892B09F45EC0209751F060915B
:10052000060170910701CE010E94DA0F892B09F0B4
:1005300049C067EC71E08AE893E00E94ED0C4AE064
:1005400050E0BE018AE893E00E94BF0D63ED71E0C8
:100550008AE893E00E94ED0C6091AC027091AD02CC
:1005600076956795769567954AE050E08AE893E03E
:100570000E94EC0D67ED71E08AE893E00E94ED0CBB
:100580006091AA027091AB02759567957595679514
:100590004AE050E08AE893E00E94BF0D67ED71E009
:1005A0008AE893E00E94ED0C6091A8027091A90284
:1005B00075956795759567954AE050E08AE893E0F0
:1005C0000E94C70D8091A4029091A502019690937C
:1005D000A5028093A4022196CD3F83E0D80709F0BD
:1005E00045CF8091AC029091AD029093A30280938D
:1005F000A2028091AA029091AB029093A1028093F3
:10060000A0028091A8029091A90290939F028093EA
:100610009E026091A6027091A702882777FD8095BF
:10062000982FDF91CF911F910F91FF90EF90DF9066
:10063000CF90BF90AF909F908F900C947F0E0F93B0
:100640001F93CF93DF93CDB7DEB768970FB6F894BB
:10065000DEBF0FBECDBF8C016BED71E08AE893E089
:100660000E940A0D84E690E09C8B8B8B1E8A1D8A6B
:10067000188E1F8A1E861D86988B8F871A8A198A64
:1006800018861F821A8619869C878B8786E0EEE083
:10069000F1E0DE01119601900D928A95E1F7BE011D
:1006A0006D5E7F4FC8010E94DB01BE01635F7F4F1B
:1006B000C8010E94DB01BE01695F7F4FC8010E9433
:1006C000DB01BE016F5F7F4FC8010E94DB016896AE
:1006D0000FB6F894DEBF0FBECDBFDF91CF911F9153
:1006E0000F9108951092AD021092AC021092AB02DD
:1006F0001092AA021092A9021092A8021092A302CC
:100700001092A2021092A1021092A00210929F02D7
:1007100010929E0208950895089508952CEF31E0F7
:10072000FC013183208308952CEF31E0FC013183FB
:1007300020830C94040E2CEF31E0FC0131832083E4
:10074000089523E632E0FC01318320830C948E036C
:10075000CF93DF93EC010E94A103CE01DF91CF91F3
:100760000C94040E0F931F93CF93DF93EC018B0136
:100770000E949B0383E692E0998388831B830A830C
:1007800066E072E08AE893E00E94ED0C6A817B816A
:100790004AE050E08AE893E0DF91CF911F910F91FA
:1007A0000C94C70D8CE193E00E94210782EA9AE045
:1007B0000E94160A0E940F0A029719F068E172E07F
:1007C00002C064E372E08AE893E00C940A0D0C9492
:1007D000D203CF93DF93EC0160E572E08AE893E007
:1007E0000E94ED0C6A817B814AE050E08AE893E048
:1007F0000E94C70D0A80DB81C02D0E94E3099E0183
:10080000281B390BC901019797FF02C080E090E0D7
:10081000DF91CF9108950C94E903CF93DF93EB011F
:100820006DE572E08AE893E00E94ED0CCA30D105D4
:100830002CF460E38AE893E00E94EF0C4AE050E079
:10084000BE018AE893E0DF91CF910C94BF0DCF9366
:10085000DF93EC010E94E3094AE050E0BC018AE822
:1008600093E00E94BF0D0E94EB09BC01CE010E94E3
:100870000D040E94F309BC01CE010E940D0469ED34
:1008800071E08AE893E00E94ED0C0E94FB094AE0C7
:1008900050E0BC018AE893E00E94BF0D69ED71E071
:1008A0008AE893E00E94ED0C0E94030A4AE050E0BF
:1008B000BC018AE893E00E94BF0D69ED71E08AE80F
:1008C00093E00E94ED0C0E940B0A4AE050E0BC014C
:1008D0008AE893E00E94BF0D8AE893E00E94F60C3C
:1008E0000E94E30941E02A813B81821793070CF4BF
:1008F00040E0842FDF91CF9108950C94270410924B
:100900001B0381E0809319031092180361E082E1D8
:100910000E94A30F61E083E10E94A30FE9EBF0E0E6
:1009200080818E7F808380818D7F808388E4809327
:10093000B80085E48093BC000895413208F03FC0C0
:1009400090911B039111FCCF91E090931B03209396
:1009500019032FEF2093AE021092F302240F20937D
:10096000F20290931A0390911A03880F892B8093B7
:100970001A0380911803813041F41092180380917A
:100980001A038093BB0085EC01C085EE8093BC0008
:1009900080911B038130E1F38091F302841710F4FE
:1009A0004091F30224EF32E0FB01D9018A2F821B30
:1009B000841718F48D918193F9CF842F089580E0E6
:1009C00008950F93413208F046C090911B03911196
:1009D000FCCF92E090931B03009319039FEF909339
:1009E000AE021092F3024093F202FB0164EF72E058
:1009F000DB019A2F961B941718F491919D93F9CFD0
:100A000010921A0390911A03880F892B80931A036E
:100A100080911803813041F41092180380911A03D9
:100A20008093BB0085EC01C085EE8093BC0022233F
:100A300021F080911B038230E1F38091AE028F3F61
:100A400061F08091AE02803251F08091AE0280332D
:100A500041F483E007C081E005C080E003C082E08C
:100A600001C084E00F910895613298F420911B0336
:100A7000243089F46093D002FC0182ED92E0DC0125
:100A80002A2F281B261718F421912D93F9CF80E0E7
:100A9000089581E0089582E0089585ED8093BC007B
:100AA0008091BC0084FDFCCF10921B03089585EC5F
:100AB0008093BC0010921B0308951F920F920FB6F3
:100AC0000F9211242F933F934F935F936F937F93D4
:100AD0008F939F93AF93BF93EF93FF938091B90050
:100AE000887F803609F49CC068F5883209F45BC0C1
:100AF00090F4803109F454C038F4882309F4F5C027
:100B0000883009F44DC0F5C0883109F44CC08032FA
:100B100009F45DC0EEC0803409F468C048F4803345
:100B200009F455C0883309F0E4C08093AE02A8C030
:100B3000803509F44FC0883509F45DC0883409F068
:100B4000D8C0D5C0883909F4C6C0A8F4883709F4DC
:100B500067C038F4883609F463C0803709F460C090
:100B6000C8C0883809F4B7C0803909F45FC080383C
:100B700009F0BFC05BC0803B09F485C038F4803AFF
:100B800009F466C0883A09F47EC0B3C0803C09F419
:100B9000A6C0883C09F4A3C0883B09F489C0A9C059
:100BA00080911A0310C09091F3028091F20298177D
:100BB00070F5E091F30281E08E0F8093F302F0E094
:100BC000EC50FD4F80818093BB0085EC85C0809305
:100BD000AE028DC0E091F30281E08E0F8093F302AC
:100BE0008091BB00F0E0EC50FD4F80839091F302C8
:100BF0008091F2026DC0E091F30281E08E0F80934C
:100C0000F3028091BB00F0E0EC50FD4F80838091B7
:100C1000190381116CC081E08093180384EA60C0DD
:100C200083E080931B031092AF02CFCF8091AF027D
:100C3000803208F050C0E091AF0281E08E0F8093C7
:100C4000AF028091BB00F0E0E055FD4F8083BDCF47
:100C50008091AF02803230F4E091AF02F0E0E055D5
:100C6000FD4F10820E944D056091AF0270E0E0914F
:100C70001403F091150380EB92E009951092AF02F6
:100C80000E94570536C084E080931B031092D10266
:100C90001092D002E0911603F0911703099580910C
:100CA000D002811105C081E08093D0021092D2025F
:100CB000E091D10281E08E0F8093D102F0E0EE52FC
:100CC000FD4F80818093BB009091D1028091D00232
:100CD000981708F47ACF85E88093BC000AC085ECA9
:100CE0008093BC0010921B0304C01092AE020E94BD
:100CF0004D05FF91EF91BF91AF919F918F917F91A2
:100D00006F915F914F913F912F910F900FBE0F9078
:100D10001F90189580914C0390E020914D03821B09
:100D20009109089520914D0380914C03281750F4A8
:100D3000E22FF0E0E25BFC4F808190E02F5F209398
:100D40004D0308958FEF9FEF0895E0914D0380913B
:100D50004C03E81730F4F0E0E25BFC4F808190E058
:100D600008958FEF9FEF08950895CF92DF92EF924D
:100D7000FF920F931F93CF93DF937C01CB018A01E6
:100D800020912803222389F0EB016B01C40ED51EAC
:100D9000CC15DD0569F06991D701ED91FC910190C9
:100DA000F081E02DC7010995F3CF642F0E9434052F
:100DB000C801DF91CF911F910F91FF90EF90DF90CD
:100DC000CF900895CF93DF931F92CDB7DEB769839D
:100DD000209128032223D1F020912903203240F0D2
:100DE00021E030E0FC013383228380E090E015C0F5
:100DF00080912A03E82FF0E0E55DFC4F9981908314
:100E00008F5F80932A038093290305C061E0CE01A0
:100E100001960E94340581E090E00F90DF91CF9120
:100E20000895FC011382128248EE53E060E070E006
:100E3000448355836683778381E792E0918380833F
:100E4000089510924D0310924C0310922A031092B1
:100E500029030C947F04862F413208F040E26EE4AF
:100E600073E00E949D0410924D0380934C030895FB
:100E700021E00C942B0781E08093280360934B03BF
:100E800010922A031092290308950C943B070F93A4
:100E9000062F21E0409129036BE273E080914B0320
:100EA0000E94E10410922A03109229031092280351
:100EB0000F91089561E00C9447078CE193E00C9446
:100EC00011076F927F928F929F92AF92BF92CF92B3
:100ED000DF92EF92FF920F931F93CF93DF93EA017C
:100EE0002CE3C22ED12CE12CF12CA70196010E94FB
:100EF000EE0F6883CA01B901A70196010E94EE0FA7
:100F00006983CA01B90128E130E040E050E00E9465
:100F1000EE0F49015A016A83CA01B9016C5F7F4F24
:100F20008F4F9F4F27E030E040E050E00E94EE0FEF
:100F30006F5F6B8300E010E0980140E054E6652E9F
:100F4000712C60E9C62EDD24D394E42FF0E0EE543A
:100F5000F84F7F0183E0E822FF24E114F10489F4D3
:100F6000CF01B3010E94DA0F892B29F08EE691E0C0
:100F7000A0E0B0E00AC0CF01B6010E94DA0F892BD1
:100F8000A9F38DE691E0A0E0B0E0080F191F2A1F39
:100F90003B1FD901C801AA27BB2788169906AA06B4
:100FA000BB0610F04F5FD1CF4E83E114F10499F4EA
:100FB000CF0164E670E00E94DA0F892B29F08EE6FB
:100FC00091E0A0E0B0E00BC0CF0160E971E00E94C9
:100FD000DA0F892BA1F38DE691E0A0E0B0E0081BC9
:100FE000190B2A0B3B0B801A910AA20AB30ACF01F4
:100FF00064E670E00E94DA0F9C01CF0160E971E0C5
:101000000E94DA0FEDE7F2E0A0E0A13059F4E1141C
:10101000F10451F42115310511F04DE106C000979E
:10102000E1F302C0408101C04CE150E060E070E0BB
:1010300084169506A606B70640F0841A950AA60AF5
:10104000B70AAF5F3196AC3001F7AF5FAD838394E1
:101050008C82DF91CF911F910F91FF90EF90DF90E5
:10106000CF90BF90AF909F908F907F906F9008959A
:10107000CF92DF92EF92FF926B017C0180917E0311
:1010800090917F03A0918003B0918103C816D90687
:10109000EA06FB0671F042E853E0C701B6010E9480
:1010A0006107C0927E03D0927F03E0928003F092AA
:1010B0008103FF90EF90DF90CF9008950E94380851
:1010C0008091880390E08E54984F08956F927F929C
:1010D0008F929F92AF92BF92CF92DF92EF92FF9248
:1010E0000F931F93CF93DF93FC01C680AC2DB0E02C
:1010F00020E833E341EE51E00E941F104B015C01F8
:1011000022EB37E06D01C4E6D0E000E911E0C9014F
:10111000825B97408C159D05DCF4C901837099278B
:10112000892B99F4C901BE010E94DA0F892B31F491
:10113000C901B8010E94DA0F892B39F480E8880EC2
:1011400081E5981E81E0A81EB11C2F5F3F4FDFCFC5
:101150006580712C8EE4C81A88EFD80AC60164E64F
:1011600070E00E94DA0F8C01C60160E971E00E9414
:10117000DA0F7C01C1E0D0E083E0C822DD24C6158F
:10118000D7052CF5C230D10589F4C114D10471F40E
:101190000115110519F4E114F10441F480E8880EF9
:1011A0008BE3981E86E2A81EB11C0FC0DE01A45876
:1011B000BD4FAC91B0E020E831E541E050E00E9445
:1011C0001F10860E971EA81EB91E2196D8CF4181EA
:1011D000228130E0A0E1BEE00E9410106B017C0192
:1011E000242F30E0ACE3B0E00E941010C60ED71EF2
:1011F000E81EF91E8081C80ED11CE11CF11CA481DF
:10120000B0E0119720E831E541E050E00E942A105B
:10121000C60ED71EE81EF91EC80CD91CEA1CFB1C02
:10122000C701B601DF91CF911F910F91FF90EF9011
:10123000DF90CF90BF90AF909F908F907F906F90F6
:1012400008950F931F9360937A0370937B038093A9
:101250007C0390937D0300910A0110910B01209172
:101260000C0130910D01060F171F281F391F009325
:10127000720310937303209374033093750382E019
:1012800090E090937103809370030E94500E6093DE
:1012900076037093770380937803909379031F917B
:1012A0000F910895CF92DF92EF92FF920F931F93C9
:1012B0000E94500EC0907603D0907703E0907803A0
:1012C000F09079036C197D098E099F0900917A03CA
:1012D00010917B0320917C0330917D03683E734025
:1012E00081059105D8F00F5F1F4F2F4F3F4F00939F
:1012F0007A0310937B0320937C0330937D0348EEA5
:10130000C40E43E0D41EE11CF11CC0927603D092BF
:101310007703E0927803F0927903CACF8091720349
:1013200090917303A0917403B09175030817190786
:101330002A073B07C8F1E0916E03F0916F033097E5
:1013400099F10995611571058105910519F00E94C2
:1013500021092AC080910A0190910B01A0910C01F2
:10136000B0910D0140917A0350917B0360917C0311
:1013700070917D03840F951FA61FB71F8093720382
:1013800090937303A0937403B093750381E090E08E
:101390002091700330917103232B11F480E090E0D1
:1013A000909371038093700360917A0370917B0333
:1013B00080917C0390917D031F910F91FF90EF909E
:1013C000DF90CF9008950E9452090E9438088091C2
:1013D000840390E008950E9452090E943808809189
:1013E000830390E008950E9452090E94380880917A
:1013F000820390E008950E9452090E94380880916B
:10140000860390E008950E9452090E943808809156
:10141000870390E008950E9452090C945E080E9490
:1014200052098091700390917103089590936F0316
:1014300080936E0380917A0390917B03A0917C034B
:10144000B0917D038093720390937303A093740310
:10145000B09375030C945209982F92959F708F70DA
:101460002AE0929F800D112408958CE193E00C9462
:1014700021071F93CF93DF93EC0168E670E08CE1C6
:1014800093E00E94450760E08CE193E00E94E20651
:101490008CE193E00E945A07882319F01092890387
:1014A0004CC081E08093890347E050E068E670E03B
:1014B0008CE193E00E9438078CE193E00E948A0659
:1014C0000797DCF18CE193E00E949206182F8F774A
:1014D0000E942C0A88838CE193E00E9492060E946D
:1014E0002C0A89838CE193E00E9492068F730E94FC
:1014F0002C0A8A838CE193E00E9492060E942C0AB7
:101500008B838CE193E00E9492060E942C0A8C83CC
:101510008CE193E00E9492060E942C0A8D838CE15C
:1015200093E00E9492060E942C0A825E8E83812F95
:101530008095881F8827881F01C080E0DF91CF91A8
:101540001F910895CF93DF93CDB7DEB727970FB6DE
:10155000F894DEBF0FBECDBFCE0101960E94390ABE
:10156000882329F0CE0101960E94660803C060E03E
:1015700070E0CB0127960FB6F894DEBF0FBECDBF4B
:10158000DF91CF910895FC01818D228D90E0805CE8
:101590009F4F821B910960E470E00E94DA0F08956A
:1015A000FC01918D828D981731F0828DE80FF11D2D
:1015B000858D90E008958FEF9FEF0895FC01918D48
:1015C000828D981761F0828DDF01A80FB11D5D96A5
:1015D0008C91928D9F5F9F73928F90E008958FEF13
:1015E0009FEF089582E69CE0892B49F080E090E02F
:1015F000892B29F00E94620C81110C94000008953F
:10160000FC01848DDF01A80FB11DA35ABF4F2C919F
:10161000848D90E001968F739927848FA689B7896E
:101620002C93A089B1898C9180648C93938D848D47
:10163000981306C00288F389E02D80818F7D808316
:101640000895CF93DF93EC01888D8823C9F0EA8950
:10165000FB89808185FD05C0A889B9898C9186FDAB
:101660000FC00FB607FCF5CF808185FFF2CFA889A8
:10167000B9898C9185FFEDCFCE010E94000BE7CF99
:10168000DF91CF910895CF92DF92FF920F931F9336
:10169000CF93DF931F92CDB7DEB76C01DC015B9671
:1016A0009C915B975C968C915C97981307C05096C1
:1016B000ED91FC915197808185FD32C0F601038D3B
:1016C00010E00F5F1F4F0F731127F02EF601848D6E
:1016D000F81211C00FB607FCF9CFD6015096ED9164
:1016E000FC915197808185FFF1CFC60169830E94EB
:1016F000000B6981EBCF838DE80FF11DE35AFF4F9B
:101700006083D6015B960C935B975296ED91FC91AA
:10171000539780818062808381E058968C930DC0BE
:10172000D6015696ED91FC91579760835096ED91B6
:10173000FC91519780818064808381E090E00F90DC
:10174000DF91CF911F910F91FF90DF90CF9008957F
:10175000BF92CF92DF92EF92FF92CF93DF93EC0193
:101760006A017B01B22EE889F98982E08083411504
:1017700081EE580761057105A1F060E079E08DE325
:1017800090E0A70196010E94EE0F21503109410916
:1017900051095695479537952795211580E13807CA
:1017A00098F0E889F989108260E874E88EE190E0A9
:1017B000A70196010E94EE0F2150310941095109FC
:1017C0005695479537952795EC85FD853083EE85B1
:1017D000FF852083188EEC89FD89B082EA89FB8918
:1017E000808180618083EA89FB8980818860808331
:1017F000EA89FB89808180688083EA89FB8980810E
:101800008F7D8083DF91CF91FF90EF90DF90CF901D
:10181000BF9008951F920F920FB60F9211242F932D
:101820008F939F93EF93FF93E0919A03F0919B0323
:101830008081E091A003F091A10382FD12C090810C
:101840008091A3038F5F8F732091A403821751F0BF
:10185000E091A303F0E0E657FC4F958F8093A3033C
:1018600001C08081FF91EF919F918F912F910F90F7
:101870000FBE0F901F9018951F920F920FB60F92E8
:1018800011242F933F934F935F936F937F938F9385
:101890009F93AF93BF93EF93FF938AE893E00E94E7
:1018A000000BFF91EF91BF91AF919F918F917F912D
:1018B0006F915F914F913F912F910F900FBE0F90BD
:1018C0001F9018958AE893E00E94C30A21E0892BB3
:1018D00009F420E0822F089510928D0310928C035A
:1018E00088EE93E0A0E0B0E080938E0390938F03A6
:1018F000A0939003B09391038DE892E090938B03B3
:1019000080938A0385EC90E09093970380939603ED
:1019100084EC90E0909399038093980380EC90E09E
:1019200090939B0380939A0381EC90E090939D03A6
:1019300080939C0382EC90E090939F0380939E039E
:1019400086EC90E09093A1038093A0031092A303F0
:101950001092A4031092A5031092A6030895CF92AB
:10196000DF92EF92FF920F931F93CF93DF936C015F
:101970007A01EB01E60EF71E00E010E0CE15DF0560
:1019800061F06991D601ED91FC910190F081E02D1B
:10199000C6010995080F191FF1CFC801DF91CF913A
:1019A0001F910F91FF90EF90DF90CF9008956115F8
:1019B000710581F0DB010D900020E9F7AD01415088
:1019C0005109461B570BDC01ED91FC910280F3811C
:1019D000E02D099480E090E008950C94D70CDC0190
:1019E000ED91FC910190F081E02D09940F931F93EC
:1019F000CF93DF93EC016DE00E94EF0C8C016AE065
:101A0000CE010E94EF0C800F911FDF91CF911F91AB
:101A10000F9108950F931F93CF93DF93EC010E94D2
:101A2000D70C8C01CE010E94F60C800F911FDF9124
:101A3000CF911F910F9108958F929F92AF92BF9275
:101A4000CF92DF92EF92FF920F931F93CF93DF938A
:101A5000CDB7DEB7A1970FB6F894DEBF0FBECDBFEE
:101A60007C01C42EE52FCB01D22E19A221E02D1529
:101A700010F02AE0D22E8E010F5D1F4F8D2C912C7D
:101A8000A12CB12C6C2D7E2FA50194010E94EE0F8C
:101A90008C2DD29E80191124015011098A3014F422
:101AA000805D01C0895CF801808321153105410505
:101AB000510521F0C22EE32FCA01E4CFB801C701BE
:101AC0000E94D70CA1960FB6F894DEBF0FBECDBF13
:101AD000DF91CF911F910F91FF90EF90DF90CF900A
:101AE000BF90AF909F908F900895CF92DF92EF922A
:101AF000FF920F931F93CF93DF93EC016A017B0159
:101B00002115310579F4E881F9810190F081E02D0A
:101B1000642FDF91CF911F910F91FF90EF90DF9095
:101B2000CF9009942A303105E9F477FF1AC06DE2AD
:101B30000E94EF0C8C0144275527BA014C195D090E
:101B40006E097F092AE0CE010E941C0D800F911FB3
:101B5000DF91CF911F910F91FF90EF90DF90CF9089
:101B600008952AE0B701A601CE01DF91CF911F9120
:101B70000F91FF90EF90DF90CF900C941C0D9A0185
:101B8000AB01662757FD6095762F0C94750D0F936A
:101B90001F93CF93DF93EC019A01AB01662757FDAA
:101BA0006095762F0E94750D8C01CE010E94F60C77
:101BB000800F911FDF91CF911F910F9108952115F3
:101BC000310541F4DC01ED91FC910190F081E02DB3
:101BD000642F09940C941C0D9A01AB0160E070E035
:101BE0000C94DF0D08950E94A70E0E94F20D0E9432
:101BF0008A00C2EFDAE00E94EE002097E1F30E9433
:101C0000F20AF9CF0C944C100C94E4101F920F922E
:101C10000FB60F9211242F933F938F939F93AF93FF
:101C2000BF938091280490912904A0912A04B09137
:101C30002B043091270423E0230F2D3720F4019645
:101C4000A11DB11D05C026E8230F0296A11DB11DDF
:101C5000209327048093280490932904A0932A04B6
:101C6000B0932B0480912C0490912D04A0912E040C
:101C7000B0912F040196A11DB11D80932C04909367
:101C80002D04A0932E04B0932F04BF91AF919F9188
:101C90008F913F912F910F900FBE0F901F9018952D
:101CA0002FB7F894609128047091290480912A0438
:101CB00090912B042FBF08953FB7F89480912C0486
:101CC00090912D04A0912E04B0912F0426B5A89BCD
:101CD00005C02F3F19F00196A11DB11D3FBF66271A
:101CE000782F892F9A2F620F711D811D911D42E05F
:101CF000660F771F881F991F4A95D1F70895CF92D5
:101D0000DF92EF92FF92CF93DF936B017C010E94F1
:101D10005C0EEB01C114D104E104F10489F00E94CE
:101D2000D90F0E945C0E6C1B7D0B683E734090F3D4
:101D300081E0C81AD108E108F108C851DC4FEACFA8
:101D4000DF91CF91FF90EF90DF90CF90089578943E
:101D500084B5826084BD84B5816084BD85B58260B0
:101D600085BD85B5816085BDEEE6F0E0808181604E
:101D70008083E1E8F0E0108280818260808380814E
:101D800081608083E0E8F0E0808181608083E1EB26
:101D9000F0E0808184608083E0EBF0E0808181600E
:101DA0008083EAE7F0E080818460808380818260C4
:101DB00080838081816080838081806880831092AD
:101DC000C10008951F93CF93DF93182FEB0161E0BB
:101DD0000E946A0F209711F460E004C0CF3FD10544
:101DE00039F461E0812FDF91CF911F910C94A30F03
:101DF000E12FF0E0E859FF4FE491E330F9F048F4C7
:101E0000E130B9F0E230A1F584B5806284BDC8BD8F
:101E100034C0E730E9F0E83019F1E43049F5809159
:101E20008000806280938000D0938B00C0938A00F2
:101E300024C084B5806884BDC7BD1FC08091800068
:101E4000806880938000D0938900C093880015C07B
:101E50008091B00080688093B000C093B3000DC043
:101E60008091B00080628093B000C093B40005C040
:101E7000C038D1050CF0B5CFAFCFDF91CF911F9116
:101E80000895833081F028F4813099F08230A1F0F8
:101E900008958730A9F08830B9F08430D1F480916A
:101EA00080008F7D03C0809180008F7780938000B9
:101EB000089584B58F7702C084B58F7D84BD089561
:101EC0008091B0008F7703C08091B0008F7D8093A8
:101ED000B0000895CF93DF9390E0FC01E458FF4FEA
:101EE0002491FC01E057FF4F8491882349F190E051
:101EF000880F991FFC01E255FF4FA591B4918C55B5
:101F00009F4FFC01C591D4919FB7611108C0F8940F
:101F10008C91209582238C93888182230AC0623021
:101F200051F4F8948C91322F309583238C938881CF
:101F3000822B888304C0F8948C91822B8C939FBF52
:101F4000DF91CF9108950F931F93CF93DF931F924B
:101F5000CDB7DEB7282F30E0F901E859FF4F849163
:101F6000F901E458FF4F1491F901E057FF4F049134
:101F70000023C9F0882321F069830E94410F698101
:101F8000E02FF0E0EE0FFF1FEC55FF4FA591B4914D
:101F90009FB7F8948C91611103C01095812301C003
:101FA000812B8C939FBF0F90DF91CF911F910F9149
:101FB0000895089597FB072E16F4009407D077FD37
:101FC00009D00E94321007FC05D03EF4909581950F
:101FD0009F4F0895709561957F4F0895A1E21A2E45
:101FE000AA1BBB1BFD010DC0AA1FBB1FEE1FFF1FBD
:101FF000A217B307E407F50720F0A21BB30BE40B0D
:10200000F50B661F771F881F991F1A9469F7609553
:102010007095809590959B01AC01BD01CF0108950D
:10202000A29FB001B39FC001A39F700D811D112419
:10203000911DB29F700D811D1124911D08950E9464
:102040001010A59F900DB49F900DA49F800D911D21
:1020500011240895B7FF0C941F100E941F10821BBB
:10206000930B0895AA1BBB1B51E107C0AA1FBB1FFE
:10207000A617B70710F0A61BB70B881F991F5A9514
:10208000A9F780959095BC01CD010895EE0FFF1F33
:102090000590F491E02D0994CF93DF938230910560
:1020A00010F482E090E0E0913204F091330420E0FB
:1020B00030E0A0E0B0E0309739F14081518148171D
:1020C0005907B8F04817590771F482819381109726
:1020D00029F013969C938E9312972CC090933304FF
:1020E0008093320427C02115310531F04217530780
:1020F00018F0A901DB0101C0EF019A01BD01DF0168
:102100000280F381E02DD7CF21153105F9F0281B8E
:10211000390B2430310580F48A819B81611571056A
:1021200021F0FB019383828304C090933304809356
:102130003204FE01329644C0FE01E20FF31F819388
:10214000919322503109398328833AC02091300479
:1021500030913104232B41F420910201309103018D
:10216000309331042093300420910001309101011B
:102170002115310541F42DB73EB74091040150912E
:102180000501241B350BE0913004F0913104E21776
:10219000F307A0F42E1B3F0B2817390778F0AC018A
:1021A0004E5F5F4F2417350748F04E0F5F1F509367
:1021B0003104409330048193919302C0E0E0F0E059
:1021C000CF01DF91CF910895CF93DF93009709F46A
:1021D00087C0FC01329713821282C0913204D091E1
:1021E0003304209781F420813181280F391F809199
:1021F0003004909131048217930779F5F0933104FC
:10220000E09330046DC0DE0120E030E0AE17BF0780
:1022100050F412964D915C9113979D014115510513
:1022200009F1DA01F3CFB383A28340815181840F96
:10223000951F8A179B0771F48D919C911197840FBC
:10224000951F02969183808312968D919C9113978E
:10225000938382832115310529F4F0933304E093AD
:1022600032043EC0D9011396FC93EE9312974D9120
:102270005D91A40FB51FEA17FB0779F48081918166
:10228000840F951F0296D90111969C938E9382819B
:10229000938113969C938E931297E0E0F0E08A81ED
:1022A0009B81009719F0FE01EC01F9CFCE01029657
:1022B00028813981820F931F20913004309131049D
:1022C0002817390769F4309729F4109233041092D3
:1022D000320402C013821282D0933104C0933004BE
:0A22E000DF91CF910895F894FFCF2D
:1022EA0000003404800014000A002C0100002800B9
:1022FA005F000000626567696E00696E69746961F2
:10230A006C697A696E6720656666656374732061B5
:10231A006E6420706F77657220636F6E74726F6C73
:10232A00005475726E696E67206F757420746865E3
:10233A00206C69676874730020686F757273207502
:10234A006E74696C206C6967687473206F6E2E00F6
:10235A00536C656570696E6720666F722000206D28
:10236A00696C697365636F6E64730077616B65206E
:10237A00757020616E6420636865636B20616761B4
:10238A00696E2E00000000006B017101680169018D
:10239A006A0163726F73736661646520696E69743A
:1023AA0069616C697A65004C6F6F702F5247423AC7
:1023BA00202300207C2000202F200063726F73737B
:1023CA00666164652073686F7700000000009F01F2
:1023DA00A6017E011F039001000000008E039403F2
:1023EA008B038C038D036C6967687473206F6E208E
:1023FA0073657420746F2000556E61626C65207479
:10240A006F2073796E632077697468207468652019
:10241A0052544300525443206861732073657420F8
:10242A007468652073797374656D2074696D6500CD
:10243A0053746172742074696D653A20003A000021
:10244A00000000A103A8037D04E7030B04000000B9
:10245A0000E206B5068A069206A506B4061F1C1FE8
:10246A001E1F1E1F1F1E1F1E1F00000000430BAF52
:0A247A000CC30ADE0AD00A210B0091
:00000001FF
