:100000000C9463000C948B000C948B000C948B006C
:100010000C948B000C948B000C948B000C948B0034
:100020000C948B000C948B000C948B000C948B0024
:100030000C948B000C948B000C948B000C948B0014
:100040000C9474060C948B000C9413030C945A03B8
:100050000C948B000C948B000C948B000C948B00F4
:100060000C948B000C948B000000000024002700EF
:100070002A0000000000250028002B0000000000DE
:1000800023002600290004040404040404040202DA
:100090000202020203030303030301020408102007
:1000A0004080010204081020010204081020000012
:1000B0000007000201000003040600000000000029
:1000C00000001101970411241FBECFEFD8E0DEBF5E
:1000D000CDBF11E0A0E0B1E0E0EFF3E102C0059098
:1000E0000D92A039B107D9F712E0A0E9B1E001C043
:1000F0001D92AF34B107E1F710E0C6ECD0E004C0C8
:100100002297FE010E94F209C23CD107C9F70E9462
:100110005F060C94F6090C94000080EA91E060E020
:1001200071E00E944C06E0919001F0919101A08154
:10013000B18116962D913C911797CF01F901099540
:1001400068EE73E080E090E00E94F7060895FF9269
:100150000F931F9300EA11E0C80140E855E260E008
:1001600070E00E948A03C80165E071E00E944C06BD
:1001700082E090E00E947106F92E082F192FC80125
:100180000E94050300939001F0929101D801ED9136
:10019000FC910480F581E02D802F9F2D09951F9102
:1001A0000F91FF90089508950895FC0183E591E073
:1001B000918380830895FC0183E591E0918380839E
:1001C0000895FC0183E591E0918380830895FC010B
:1001D00083E591E091838083CF010E946E060895AC
:1001E000CF93DF93FB01EA016115710559F0C90155
:1001F0000E94A709892B31F41E161F0614F42196BC
:1002000001C02197AE01D7FF02C040E050E04F3F50
:10021000510519F014F04FEF50E0CA01DF91CF9172
:1002200008951092930110929201109295011092EC
:100230009401109297011092960110929B011092D6
:100240009A0110929D0110929C0110929F011092B0
:100250009E01089580EA91E06BE071E00E944C06F7
:1002600089E061E00E94BF078AE061E00E94BF0769
:100270008BE061E00E94BF0708958F929F92AF923A
:10028000BF92CF92DF92EF92FF920F931F93CF9383
:10029000DF934C01FB01C281D381E480F580208192
:1002A00031818FEF90E0AC01249FC001259F900D1C
:1002B000349F900D112464E670E00E94A7095B0151
:1002C00080919A0190919B01A81AB90A31F08CEFA4
:1002D00093E0B5010E94A7095B018FEF90E09C01BC
:1002E000C29FC001C39F900DD29F900D112464E660
:1002F00070E00E94A7096B0180919C0190919D0183
:10030000C81AD90A31F08CEF93E0B6010E94A70910
:100310006B018FEF90E0AC01E49EC001E59E900D73
:10032000F49E900D112464E670E00E94A7097B0101
:1003300080919E0190919F01E81AF90A31F08CEFAB
:1003400093E0B7010E94A7097B01C0E0D0E0409193
:10035000920150919301C401B5019E010E94F000E9
:100360008C0190939301809392014091940150915C
:100370009501C401B6019E010E94F0009093950181
:10038000809394014091960150919701C401B70167
:100390009E010E94F000909397018093960116951C
:1003A00007951695079589E0B8010E945F0760914F
:1003B00094017091950175956795759567958AE09B
:1003C0000E945F07609196017091970175956795FE
:1003D000759567958BE00E945F076091430170916E
:1003E0004401882777FD8095982F0E94F706809119
:1003F000450190914601892B09F45EC0209751F088
:100400006091470170914801CE010E94A709892B94
:1004100009F049C080EA91E060E271E00E9449067B
:1004200080EA91E0BE014AE050E00E94170680EAAF
:1004300091E06CE271E00E94490660919201709136
:100440009301769567957695679580EA91E04AE005
:1004500050E00E94C60580EA91E060E371E00E94EE
:100460004906609194017091950175956795759510
:10047000679580EA91E04AE050E00E94170680EA22
:1004800091E060E371E00E944906609196017091ED
:100490009701759567957595679580EA91E04AE0B3
:1004A00050E00E942A0680914501909146010196F4
:1004B0009093460180934501219653E0CD3FD507A7
:1004C00009F045CF809192019091930190939B0107
:1004D00080939A01809194019091950190939D0150
:1004E00080939C01809196019091970190939F0138
:1004F00080939E016091980170919901882777FD02
:100500008095982F0E94F706DF91CF911F910F9150
:10051000FF90EF90DF90CF90BF90AF909F908F9023
:1005200008950F931F93DF93CF93CDB7DEB76897EE
:100530000FB6F894DEBF0FBECDBF8C0180EA91E00C
:1005400064E371E00E944C06DE011196E9E7F1E0F8
:1005500086E001900D928150E1F7DE011796E3E706
:10056000F1E086E001900D928150E1F7DE011D96E9
:10057000EDE6F1E086E001900D928150E1F7DE01B9
:100580005396E7E6F1E086E001900D928150E1F7A5
:10059000C801BE016F5F7F4F0E943D01C801BE01CF
:1005A000695F7F4F0E943D01C801BE01635F7F4FBD
:1005B0000E943D01C801BE016D5E7F4F0E943D015A
:1005C00068960FB6F894DEBF0FBECDBFCF91DF9116
:1005D0001F910F910895FC018FE591E09183808335
:1005E000CF010E94DB0008950F931F938C018FE5CC
:1005F00091E0F80191838083C8010E94DB00C8016B
:100600000E946E061F910F9108950F931F938C0106
:100610000E94D5008FE591E0F801918380831F91BE
:100620000F91089508951F920F920FB60F92112403
:100630002F933F934F938F939F93EF93FF938091CB
:10064000C00082FD19C04091C6008091BE01282FD4
:1006500030E02F5F3F4F2F7330708091BF0190E0EB
:100660002817390759F0E091BE01F0E0E056FE4F3F
:1006700042A32093BE0102C08091C600FF91EF917A
:100680009F918F914F913F912F910F900FBE0F909F
:100690001F9018958091BE012091BF0190E0805C71
:1006A0009F4F821B91098F739070892B11F00E94CC
:1006B000120308951F920F920FB60F9211242F93D9
:1006C0008F939F93EF93FF939091C0018091C1010D
:1006D000981731F48091C1008F7D8093C10010C0C4
:1006E000E091C101F0E0EE5FFD4F20818091C101FA
:1006F00090E001968F7390708093C1012093C600A3
:10070000FF91EF919F918F912F910F900FBE0F90BE
:100710001F901895AF92BF92DF92EF92FF920F93C6
:100720001F93CF93DF93EC017A018B01DD244030DE
:1007300081EE580780E0680780E0780711F0DD243B
:10074000D39491E0A92EB12CE889F989DD2069F0D4
:10075000C5010C8C02C0880F991F0A94E2F78083B0
:1007600060E079E08DE390E005C0108260E874E815
:100770008EE190E0A80197010E94BA092150304013
:1007800040405040569547953795279580E1203059
:10079000380720F0DD2011F0DD24D6CFEC85FD8573
:1007A0003083EE85FF8520831D8EEA89FB89408199
:1007B00021E030E0C901088C02C0880F991F0A941B
:1007C000E2F7482B4083EA89FB894081C901098C03
:1007D00002C0880F991F0A94E2F7482B4083EA89E8
:1007E000FB894081C9010A8C02C0880F991F0A94B5
:1007F000E2F7482B4083EA89FB8980810B8C02C099
:10080000220F331F0A94E2F7209528232083DF91DB
:10081000CF911F910F91FF90EF90DF90BF90AF901D
:100820000895FC01268D878D30E0205C3F4F281B0A
:1008300031092F733070C9010895FC01968D878DA1
:10084000981719F42FEF3FEF06C0878DE80FF11DC1
:1008500082A1282F30E0C9010895DC015E969C91A9
:100860005E975F968C915F97981719F42FEF3FEF83
:1008700010C05F968C915F97FD01E80FF11D92A16A
:100880005F968C915F978F5F8F735F968C93292F04
:1008900030E0C9010895DC015D968C915D97882355
:1008A00039F05096ED91FC915197808186FFF9CFF8
:1008B0005D961C920895DC0190968C919097282F5C
:1008C00030E02F5F3F4F2F73307091968C9191974E
:1008D00090E028173907C9F390968C919097FD0105
:1008E000E80FF11DEE59FF4F608390962C9390977F
:1008F0005296ED91FC915397208181E090E05B96B8
:100900000C905B9702C0880F991F0A94E2F7282B7E
:10091000208381E05D968C935D975096ED91FC91DC
:10092000519780818064808381E090E008951092E7
:10093000A3011092A20188EE93E0A0E0B0E08093C2
:10094000A4019093A501A093A601B093A70183E809
:1009500091E09093A1018093A0011092C101809138
:10096000C1018093C0011092BF018091BF018093AB
:10097000BE0185EC90E09093AD018093AC0184ECD6
:1009800090E09093AF018093AE0180EC90E0909363
:10099000B1018093B00181EC90E09093B30180931A
:1009A000B20182EC90E09093B5018093B40186ECA3
:1009B00090E09093B7018093B60184E08093B801F2
:1009C00083E08093B90187E08093BA0185E080934A
:1009D000BB0181E08093BC010895CF92DF92EF923A
:1009E000FF920F931F93CF93DF937C016B018A01DA
:1009F000C0E0D0E00FC0D6016D916D01D701ED913F
:100A0000FC910190F081E02DC7010995C80FD91F15
:100A1000015010400115110571F7CE01DF91CF9102
:100A20001F910F91FF90EF90DF90CF900895EF927C
:100A3000FF920F931F938C01DC01ED91FC910190CB
:100A4000F081E02D6DE009957C01D801ED91FC91DC
:100A50000190F081E02DC8016AE009959C012E0DFE
:100A60003F1DC9011F910F91FF90EF900895CF9303
:100A7000DF93EC016115710519F420E030E00FC03F
:100A8000DB010D900020E9F71197A61BB70BE88159
:100A9000F9810280F381E02DAD0109959C01C90126
:100AA000DF91CF9108954F925F927F928F929F92A4
:100AB000AF92BF92CF92DF92EF92FF920F931F936C
:100AC000DF93CF93CDB7DEB7A1970FB6F894DEBF13
:100AD0000FBECDBF2C01742ECB01223008F42AE0CA
:100AE00019A231E2C32ED12CCC0EDD1E822E992408
:100AF000AA24BB24672D752FA50194010E94BA0971
:100B000079018A01C801B701A50194010E948809F1
:100B1000472D461B0894C108D1084A3014F4405DA3
:100B200001C0495CF6014083E114F104010511059F
:100B300021F07E2C5F2DC801DDCFC201B6010E94DD
:100B40003705A1960FB6F894DEBF0FBECDBFCF918B
:100B5000DF911F910F91FF90EF90DF90CF90BF90AA
:100B6000AF909F908F907F905F904F900895DC01A1
:100B70002115310541F4ED91FC910190F081E02DBA
:100B8000642F099508950E9453050895EF92FF92EE
:100B90000F931F939A017B0100E010E0B801A701B9
:100BA0000E94B7051F910F91FF90EF900895CF928B
:100BB000DF92EF92FF920F931F93CF93DF93EC019D
:100BC0006A017B012115310541F4E881F981019029
:100BD000F081E02D642F09951FC02A303105D1F432
:100BE00077FF17C0E881F9810190F081E02D6DE277
:100BF00009958C0144275527BA014C195D096E09E6
:100C00007F09CE012AE00E9453059801280F391F61
:100C100004C02AE00E9453059C01C901DF91CF91D5
:100C20001F910F91FF90EF90DF90CF900895EF927A
:100C3000FF920F931F937B019A010027F7FC009509
:100C4000102FB801A7010E94D7051F910F91FF90A7
:100C5000EF900895CF92DF92EF92FF920F931F9340
:100C60006C017B019A010027F7FC0095102FB80159
:100C7000A7010E94D7058C01C6010E941705080F25
:100C8000191FC8011F910F91FF90EF90DF90CF9037
:100C900008950E9437050895EF92FF920F931F93D6
:100CA0007C010E9437058C01C7010E941705080FBF
:100CB000191FC8011F910F91FF90EF900895CF93D6
:100CC000DF930E94BC060E94A700CAE4D3E00E9402
:100CD0008D002097E1F30E944A03F9CF0E94EF08AC
:100CE00008950E94520808951F920F920FB60F9216
:100CF00011242F933F938F939F93AF93BF93809132
:100D0000460290914702A0914802B0914902309169
:100D10004A020196A11DB11D232F2D5F2D3720F012
:100D20002D570196A11DB11D20934A0280934602C2
:100D300090934702A0934802B093490280914202E7
:100D400090914302A0914402B09145020196A11DE9
:100D5000B11D8093420290934302A0934402B0934A
:100D60004502BF91AF919F918F913F912F910F902D
:100D70000FBE0F901F901895789484B5826084BD43
:100D800084B5816084BD85B5826085BD85B581608F
:100D900085BDEEE6F0E0808181608083E1E8F0E0EF
:100DA0001082808182608083808181608083E0E81E
:100DB000F0E0808181608083E1EBF0E080818460FD
:100DC0008083E0EBF0E0808181608083EAE7F0E0FF
:100DD0008081846080838081826080838081816063
:100DE00080838081806880831092C1000895EF9293
:100DF000FF920F931F93CF93DF937B018C013FB73B
:100E0000F8948091420290914302A0914402B091E3
:100E1000450226B5A89B05C02F3F19F00196A11DDC
:100E2000B11D3FBFBA2FA92F982F8827820F911D80
:100E3000A11DB11D52E0880F991FAA1FBB1F5A9513
:100E4000D1F7EC0130C00E9487093FB7F894809138
:100E5000420290914302A0914402B091450226B50E
:100E6000A89B05C02F3F19F00196A11DB11D3FBFE2
:100E7000BA2FA92F982F8827820F911DA11DB11D70
:100E800032E0880F991FAA1FBB1F3A95D1F78C1B20
:100E90009D0B885E9340B8F20894E108F1080109BF
:100EA0001109C851DC4FE114F1040105110559F68F
:100EB000DF91CF911F910F91FF90EF9008951F93B5
:100EC000CF93DF93182FEB0161E00E94BF072097BB
:100ED00009F44AC0CF3FD10509F449C0E12FF0E041
:100EE000E255FF4F84918330C1F0843028F4813083
:100EF00051F08230B1F50CC0863019F1873049F1DC
:100F0000843079F514C084B5806884BDC7BD33C012
:100F100084B5806284BDC8BD2EC080918000806889
:100F200080938000D0938900C093880024C0809172
:100F30008000806280938000D0938B00C0938A00F1
:100F40001AC08091B00080688093B000C093B30055
:100F500012C08091B00080628093B000C093B40052
:100F60000AC0C038D1051CF4812F60E002C0812F77
:100F700061E00E94FE07DF91CF911F910895CF930A
:100F8000DF93482F50E0CA0186569F4FFC013491F1
:100F90004A575F4FFA018491882369F190E0880FE6
:100FA000991FFC01E859FF4FA591B491FC01EE583F
:100FB000FF4FC591D491662351F42FB7F8948C91CB
:100FC000932F909589238C93888189230BC062305D
:100FD00061F42FB7F8948C91932F909589238C937B
:100FE0008881832B88832FBF06C09FB7F8948C918C
:100FF000832B8C939FBFDF91CF910895482F50E0B2
:10100000CA0182559F4FFC012491CA0186569F4F09
:10101000FC0194914A575F4FFA013491332309F44C
:1010200040C0222351F1233071F0243028F42130C4
:10103000A1F0223011F514C02630B1F02730C1F0F4
:101040002430D9F404C0809180008F7703C0809150
:1010500080008F7D8093800010C084B58F7702C0A0
:1010600084B58F7D84BD09C08091B0008F7703C0A7
:101070008091B0008F7D8093B000E32FF0E0EE0F01
:10108000FF1FEE58FF4FA591B4912FB7F894662338
:1010900021F48C919095892302C08C91892B8C939B
:1010A0002FBF08950F931F93CF93DF93BC0182301E
:1010B000910510F462E070E0E0914D02F0914E0273
:1010C000A0E0B0E040E050E024C08081918186172C
:1010D0009707D0F08617970771F482819381109754
:1010E00029F013969C938E9312972CC090934E02E6
:1010F00080934D0227C04115510519F084179507BB
:1011000018F4EF018D01AC01DF01828193819C0114
:10111000F9013097D1F641155105F9F0CA01861B46
:10112000970B8430910580F48A819B81011511050C
:1011300021F0F8019383828304C090934E02809340
:101140004D02FE01329645C0FE01E80FF91F619382
:1011500071930297998388833CC080914B02909150
:101160004C02892B41F480914B0190914C0190935A
:101170004C0280934B0240914D0150914E0141151C
:10118000510541F44DB75EB78091490190914A01F4
:10119000481B590B20914B0230914C022417350704
:1011A000B0F4CA01821B930B8617970780F0AB013E
:1011B0004E5F5F4F8417950750F0420F531F5093B7
:1011C0004C0240934B02F9016193719302C0E0E03D
:1011D000F0E0CF01DF91CF911F910F910895CF9350
:1011E000DF939C01009709F48FC0EC0122971B82CA
:1011F0001A8260914D0270914E026115710581F461
:1012000088819981820F931F20914B0230914C026B
:101210002817390739F5D0934C02C0934B0274C09C
:10122000DB0140E050E0AC17BD0708F1BB83AA83A7
:10123000FE0121913191E20FF31FAE17BF0779F440
:101240008D919C911197280F391F2E5F3F4F398345
:10125000288312968D919C9113979B838A834115C5
:10126000510571F4D0934E02C0934D024DC01296B9
:101270008D919C911397AD01009711F0DC01D3CFB4
:10128000DA011396DC93CE931297FA0121913191F2
:10129000E20FF31FCE17DF0769F488819981280FC9
:1012A000391F2E5F3F4FFA01318320838A819B8152
:1012B00093838283E0E0F0E0DB0112968D919C91B4
:1012C0001397009719F0BC01FD01F6CFAB014E5FFB
:1012D0005F4FDB018D919C91840F951F20914B02F4
:1012E00030914C022817390779F4309729F410927D
:1012F0004E0210924D0202C01382128242505040A0
:1013000050934C0240934B02DF91CF910895089582
:10131000629FD001739FF001829FE00DF11D649FD9
:10132000E00DF11D929FF00D839FF00D749FF00D65
:10133000659FF00D9927729FB00DE11DF91F639F06
:10134000B00DE11DF91FBD01CF011124089597FBD8
:10135000092E07260AD077FD04D02ED006D0002013
:101360001AF4709561957F4F0895F6F790958195E1
:101370009F4F0895A1E21A2EAA1BBB1BFD010DC0B1
:10138000AA1FBB1FEE1FFF1FA217B307E407F50735
:1013900020F0A21BB30BE40BF50B661F771F881F11
:1013A000991F1A9469F760957095809590959B01A7
:1013B000AC01BD01CF010895AA1BBB1B51E107C0C1
:1013C000AA1FBB1FA617B70710F0A61BB70B881FD5
:1013D000991F5A95A9F780959095BC01CD01089564
:1013E000EE0FFF1F0590F491E02D0994F894FFCFC4
:1013F00073686F7700626567696E0063726F7373FD
:101400006661646520696E697469616C697A6500FA
:101410004C6F6F702F5247423A202300207C2000EF
:10142000202F200063726F73736661646520736898
:101430006F77000A000100140080004F02000000D6
:10144000000000E100E700D300D40000000000EB42
:1014500002F4022A01910228005F0000000000004F
:101460000064000000640000006400000000000050
:101470000000005B04ED0411042D041D044B040066
:00000001FF
